{
  "_format": "hh-sol-artifact-1",
  "contractName": "contractData",
  "sourceName": "contracts/contractData.sol",
  "abi": [
    {
      "inputs": [],
      "name": "lotteryPool",
      "outputs": [
        {
          "internalType": "uint256",
          "name": "",
          "type": "uint256"
        }
      ],
      "stateMutability": "view",
      "type": "function"
    },
    {
      "inputs": [],
      "name": "owner",
      "outputs": [
        {
          "internalType": "address",
          "name": "",
          "type": "address"
        }
      ],
      "stateMutability": "view",
      "type": "function"
    }
  ],
  "bytecode": "0x608060405234801561001057600080fd5b50610167806100206000396000f3fe608060405234801561001057600080fd5b50600436106100365760003560e01c80632c8316331461003b5780638da5cb5b14610059575b600080fd5b610043610077565b60405161005091906100ba565b60405180910390f35b61006161007d565b60405161006e9190610116565b60405180910390f35b60035481565b60008054906101000a900473ffffffffffffffffffffffffffffffffffffffff1681565b6000819050919050565b6100b4816100a1565b82525050565b60006020820190506100cf60008301846100ab565b92915050565b600073ffffffffffffffffffffffffffffffffffffffff82169050919050565b6000610100826100d5565b9050919050565b610110816100f5565b82525050565b600060208201905061012b6000830184610107565b9291505056fea2646970667358221220b6b21acc30753ebefbcb5976e116b233f3cce9a02c74e95002bc7d892f980a7b64736f6c63430008090033",
  "linkReferences": {},
  "deployedLinkReferences": {}
}