{
  "_format": "hh-sol-artifact-1",
  "contractName": "contractData",
  "sourceName": "contracts/contractData.sol",
  "abi": [
    {
      "inputs": [
        {
          "internalType": "uint256",
          "name": "",
          "type": "uint256"
        }
      ],
      "name": "lotteryNumber",
      "outputs": [
        {
          "internalType": "uint256",
          "name": "",
          "type": "uint256"
        }
      ],
      "stateMutability": "view",
      "type": "function"
    },
    {
      "inputs": [],
      "name": "owner",
      "outputs": [
        {
          "internalType": "address",
          "name": "",
          "type": "address"
        }
      ],
      "stateMutability": "view",
      "type": "function"
    }
  ],
  "bytecode": "0x608060405234801561001057600080fd5b506101f5806100206000396000f3fe608060405234801561001057600080fd5b50600436106100365760003560e01c80633cd93ec21461003b5780638da5cb5b1461006b575b600080fd5b6100556004803603810190610050919061010c565b610089565b6040516100629190610148565b60405180910390f35b6100736100ad565b60405161008091906101a4565b60405180910390f35b6001818154811061009957600080fd5b906000526020600020016000915090505481565b60008054906101000a900473ffffffffffffffffffffffffffffffffffffffff1681565b600080fd5b6000819050919050565b6100e9816100d6565b81146100f457600080fd5b50565b600081359050610106816100e0565b92915050565b600060208284031215610122576101216100d1565b5b6000610130848285016100f7565b91505092915050565b610142816100d6565b82525050565b600060208201905061015d6000830184610139565b92915050565b600073ffffffffffffffffffffffffffffffffffffffff82169050919050565b600061018e82610163565b9050919050565b61019e81610183565b82525050565b60006020820190506101b96000830184610195565b9291505056fea2646970667358221220ffcc45b71d26cfbbbf2bf4286b25b82887f587d8d6ac72815a39e585e70e0f6b64736f6c63430008090033",
  "linkReferences": {},
  "deployedLinkReferences": {}
}