{
  "_format": "hh-sol-artifact-1",
  "contractName": "lotteryContract",
  "sourceName": "contracts/lotteryContract.sol",
  "abi": [
    {
      "inputs": [],
      "stateMutability": "nonpayable",
      "type": "constructor"
    },
    {
      "anonymous": false,
      "inputs": [
        {
          "indexed": false,
          "internalType": "uint256",
          "name": "_appliedTime",
          "type": "uint256"
        },
        {
          "indexed": false,
          "internalType": "uint256",
          "name": "_lotteryPrice",
          "type": "uint256"
        },
        {
          "indexed": false,
          "internalType": "uint256",
          "name": "_lotteryNumber",
          "type": "uint256"
        }
      ],
      "name": "lotteryApplyEvent",
      "type": "event"
    },
    {
      "anonymous": false,
      "inputs": [
        {
          "indexed": false,
          "internalType": "uint256",
          "name": "_openTime",
          "type": "uint256"
        },
        {
          "indexed": false,
          "internalType": "uint256",
          "name": "_closeTime",
          "type": "uint256"
        },
        {
          "indexed": false,
          "internalType": "uint256",
          "name": "_price",
          "type": "uint256"
        }
      ],
      "name": "lotteryOpenEvent",
      "type": "event"
    },
    {
      "anonymous": false,
      "inputs": [
        {
          "indexed": false,
          "internalType": "address",
          "name": "_managerAddress",
          "type": "address"
        },
        {
          "indexed": false,
          "internalType": "uint256",
          "name": "_commissionAmount",
          "type": "uint256"
        }
      ],
      "name": "transferredToManager",
      "type": "event"
    },
    {
      "anonymous": false,
      "inputs": [
        {
          "indexed": false,
          "internalType": "address",
          "name": "_winnerAddress",
          "type": "address"
        },
        {
          "indexed": false,
          "internalType": "uint256",
          "name": "_winningAmount",
          "type": "uint256"
        }
      ],
      "name": "transferredToWinner",
      "type": "event"
    },
    {
      "inputs": [
        {
          "internalType": "uint256",
          "name": "_appliedTime",
          "type": "uint256"
        }
      ],
      "name": "applyLottery",
      "outputs": [],
      "stateMutability": "payable",
      "type": "function"
    },
    {
      "inputs": [
        {
          "internalType": "uint256",
          "name": "_closingCallTime",
          "type": "uint256"
        }
      ],
      "name": "closeLottery",
      "outputs": [],
      "stateMutability": "nonpayable",
      "type": "function"
    },
    {
      "inputs": [],
      "name": "getContractBalance",
      "outputs": [
        {
          "internalType": "uint256",
          "name": "",
          "type": "uint256"
        }
      ],
      "stateMutability": "view",
      "type": "function"
    },
    {
      "inputs": [
        {
          "internalType": "uint256",
          "name": "_lotteryNumber",
          "type": "uint256"
        }
      ],
      "name": "getLotteryInfo",
      "outputs": [
        {
          "components": [
            {
              "internalType": "uint256",
              "name": "lotteryPrice",
              "type": "uint256"
            },
            {
              "internalType": "uint256",
              "name": "openTime",
              "type": "uint256"
            },
            {
              "internalType": "uint256",
              "name": "closeTime",
              "type": "uint256"
            },
            {
              "internalType": "bool",
              "name": "isOpen",
              "type": "bool"
            },
            {
              "internalType": "bool",
              "name": "isWinnerSelected",
              "type": "bool"
            }
          ],
          "internalType": "struct contractData.lotteryInfo",
          "name": "",
          "type": "tuple"
        }
      ],
      "stateMutability": "view",
      "type": "function"
    },
    {
      "inputs": [],
      "name": "getLotteryParticipants",
      "outputs": [
        {
          "internalType": "address[]",
          "name": "",
          "type": "address[]"
        }
      ],
      "stateMutability": "view",
      "type": "function"
    },
    {
      "inputs": [],
      "name": "lotteryPool",
      "outputs": [
        {
          "internalType": "uint256",
          "name": "",
          "type": "uint256"
        }
      ],
      "stateMutability": "view",
      "type": "function"
    },
    {
      "inputs": [
        {
          "internalType": "uint256",
          "name": "_lotteryNumber",
          "type": "uint256"
        },
        {
          "internalType": "uint256",
          "name": "_lotteryPrice",
          "type": "uint256"
        },
        {
          "internalType": "uint256",
          "name": "_openTime",
          "type": "uint256"
        },
        {
          "internalType": "uint256",
          "name": "_closeTime",
          "type": "uint256"
        }
      ],
      "name": "openLottery",
      "outputs": [],
      "stateMutability": "nonpayable",
      "type": "function"
    },
    {
      "inputs": [],
      "name": "owner",
      "outputs": [
        {
          "internalType": "address",
          "name": "",
          "type": "address"
        }
      ],
      "stateMutability": "view",
      "type": "function"
    },
    {
      "inputs": [
        {
          "internalType": "uint256",
          "name": "_invokedTime",
          "type": "uint256"
        }
      ],
      "name": "selectWinner",
      "outputs": [],
      "stateMutability": "nonpayable",
      "type": "function"
    },
    {
      "inputs": [
        {
          "internalType": "address",
          "name": "_toAddress",
          "type": "address"
        },
        {
          "internalType": "uint256",
          "name": "_amount",
          "type": "uint256"
        }
      ],
      "name": "transferAmount",
      "outputs": [],
      "stateMutability": "nonpayable",
      "type": "function"
    },
    {
      "inputs": [],
      "name": "winningAmount",
      "outputs": [
        {
          "internalType": "uint256[2]",
          "name": "",
          "type": "uint256[2]"
        }
      ],
      "stateMutability": "view",
      "type": "function"
    }
  ],
  "bytecode": "0x608060405234801561001057600080fd5b50336000806101000a81548173ffffffffffffffffffffffffffffffffffffffff021916908373ffffffffffffffffffffffffffffffffffffffff1602179055506120ec806100606000396000f3fe60806040526004361061009c5760003560e01c806376b3c8a81161006457806376b3c8a8146101675780638da5cb5b146101a457806398f22c12146101cf5780639d8ca531146101fa578063ae5c515814610223578063d7081e031461024c5761009c565b80632c831633146100a15780633e4ed9c4146100cc578063469b128b146100f75780634c524be4146101135780636f9fb98a1461013c575b600080fd5b3480156100ad57600080fd5b506100b6610275565b6040516100c391906112c2565b60405180910390f35b3480156100d857600080fd5b506100e161027b565b6040516100ee91906113cd565b60405180910390f35b610111600480360381019061010c9190611420565b6103de565b005b34801561011f57600080fd5b5061013a60048036038101906101359190611420565b610689565b005b34801561014857600080fd5b50610151610a78565b60405161015e91906112c2565b60405180910390f35b34801561017357600080fd5b5061018e60048036038101906101899190611420565b610a80565b60405161019b91906114df565b60405180910390f35b3480156101b057600080fd5b506101b9610b48565b6040516101c69190611509565b60405180910390f35b3480156101db57600080fd5b506101e4610b6c565b6040516101f191906115c0565b60405180910390f35b34801561020657600080fd5b50610221600480360381019061021c9190611420565b610bff565b005b34801561022f57600080fd5b5061024a600480360381019061024591906115db565b610e64565b005b34801561025857600080fd5b50610273600480360381019061026e919061166e565b610fb9565b005b60035481565b606060008054906101000a900473ffffffffffffffffffffffffffffffffffffffff1673ffffffffffffffffffffffffffffffffffffffff163373ffffffffffffffffffffffffffffffffffffffff16146102d557600080fd5b600060028054905067ffffffffffffffff8111156102f6576102f56116ae565b5b6040519080825280602002602001820160405280156103245781602001602082028036833780820191505090505b50905060005b6002805490508110156103d6576002818154811061034b5761034a6116dd565b5b9060005260206000200160009054906101000a900473ffffffffffffffffffffffffffffffffffffffff16828281518110610389576103886116dd565b5b602002602001019073ffffffffffffffffffffffffffffffffffffffff16908173ffffffffffffffffffffffffffffffffffffffff168152505080806103ce9061173b565b91505061032a565b508091505090565b808060046000600154815260200190815260200160002060020154101561043a576040517f08c379a0000000000000000000000000000000000000000000000000000000008152600401610431906117e1565b60405180910390fd5b60001515600560003373ffffffffffffffffffffffffffffffffffffffff1673ffffffffffffffffffffffffffffffffffffffff16815260200190815260200160002060009054906101000a900460ff161515146104cd576040517f08c379a00000000000000000000000000000000000000000000000000000000081526004016104c490611873565b60405180910390fd5b60008054906101000a900473ffffffffffffffffffffffffffffffffffffffff1673ffffffffffffffffffffffffffffffffffffffff163373ffffffffffffffffffffffffffffffffffffffff16141561055c576040517f08c379a0000000000000000000000000000000000000000000000000000000008152600401610553906118df565b60405180910390fd5b6004600060015481526020019081526020016000206000015434146105b6576040517f08c379a00000000000000000000000000000000000000000000000000000000081526004016105ad90611971565b60405180910390fd5b6002339080600181540180825580915050600190039060005260206000200160009091909190916101000a81548173ffffffffffffffffffffffffffffffffffffffff021916908373ffffffffffffffffffffffffffffffffffffffff1602179055506001600560003373ffffffffffffffffffffffffffffffffffffffff1673ffffffffffffffffffffffffffffffffffffffff16815260200190815260200160002060006101000a81548160ff0219169083151502179055503460035461067f9190611991565b6003819055505050565b808060046000600154815260200190815260200160002060020154106106e4576040517f08c379a00000000000000000000000000000000000000000000000000000000081526004016106db90611a33565b60405180910390fd5b60008054906101000a900473ffffffffffffffffffffffffffffffffffffffff1673ffffffffffffffffffffffffffffffffffffffff163373ffffffffffffffffffffffffffffffffffffffff1614610772576040517f08c379a000000000000000000000000000000000000000000000000000000000815260040161076990611a9f565b60405180910390fd5b600061077c611168565b9050600060028281548110610794576107936116dd565b5b9060005260206000200160009054906101000a900473ffffffffffffffffffffffffffffffffffffffff16905060006107cb610b6c565b905060008273ffffffffffffffffffffffffffffffffffffffff16826001600281106107fa576107f96116dd565b5b602002015160405161080b90611af0565b60006040518083038185875af1925050503d8060008114610848576040519150601f19603f3d011682016040523d82523d6000602084013e61084d565b606091505b5050905080610891576040517f08c379a000000000000000000000000000000000000000000000000000000000815260040161088890611b77565b60405180910390fd5b60008060009054906101000a900473ffffffffffffffffffffffffffffffffffffffff1673ffffffffffffffffffffffffffffffffffffffff16836000600281106108df576108de6116dd565b5b60200201516040516108f090611af0565b60006040518083038185875af1925050503d806000811461092d576040519150601f19603f3d011682016040523d82523d6000602084013e610932565b606091505b5050905080610976576040517f08c379a000000000000000000000000000000000000000000000000000000000815260040161096d90611c09565b60405180910390fd5b600160046000600154815260200190815260200160002060030160016101000a81548160ff0219169083151502179055507f0b90afeab6d64e573c1dcad739c379d038126f49a499b2f70896c26f2926df9284846001600281106109dd576109dc6116dd565b5b60200201516040516109f0929190611c29565b60405180910390a17fb2b73e9692534825483decce8773f0c3c890f0b4ac6cbeb1a77af0946b0b797160008054906101000a900473ffffffffffffffffffffffffffffffffffffffff1684600060028110610a4e57610a4d6116dd565b5b6020020151604051610a61929190611c29565b60405180910390a160036000905550505050505050565b600047905090565b610a886111ad565b60006040518060a001604052806004600086815260200190815260200160002060000154815260200160046000868152602001908152602001600020600101548152602001600460008681526020019081526020016000206002015481526020016004600086815260200190815260200160002060030160009054906101000a900460ff16151581526020016004600086815260200190815260200160002060030160019054906101000a900460ff161515815250905080915050919050565b60008054906101000a900473ffffffffffffffffffffffffffffffffffffffff1681565b610b746111e0565b610b7c6111e0565b600060646003546043610b8f9190611c52565b610b999190611cdb565b905060006064600354600d610bae9190611c52565b610bb89190611cdb565b90508183600060028110610bcf57610bce6116dd565b5b6020020181815250508083600160028110610bed57610bec6116dd565b5b60200201818152505082935050505090565b80806004600060015481526020019081526020016000206002015410610c5a576040517f08c379a0000000000000000000000000000000000000000000000000000000008152600401610c5190611a33565b60405180910390fd5b6001151560046000600154815260200190815260200160002060030160019054906101000a900460ff16151514610cc6576040517f08c379a0000000000000000000000000000000000000000000000000000000008152600401610cbd90611d58565b60405180910390fd5b60008054906101000a900473ffffffffffffffffffffffffffffffffffffffff1673ffffffffffffffffffffffffffffffffffffffff163373ffffffffffffffffffffffffffffffffffffffff1614610d1e57600080fd5b600060046000600154815260200190815260200160002060030160006101000a81548160ff02191690831515021790555060005b600280549050811015610dff576005600060028381548110610d7757610d766116dd565b5b9060005260206000200160009054906101000a900473ffffffffffffffffffffffffffffffffffffffff1673ffffffffffffffffffffffffffffffffffffffff1673ffffffffffffffffffffffffffffffffffffffff16815260200190815260200160002060006101000a81549060ff02191690558080610df79061173b565b915050610d52565b50600067ffffffffffffffff811115610e1b57610e1a6116ae565b5b604051908082528060200260200182016040528015610e495781602001602082028036833780820191505090505b5060029080519060200190610e5f929190611202565b505050565b6000151560046000600154815260200190815260200160002060030160009054906101000a900460ff16151514610ed0576040517f08c379a0000000000000000000000000000000000000000000000000000000008152600401610ec790611dc4565b60405180910390fd5b6040518060a00160405280848152602001838152602001828152602001600115158152602001600015158152506004600086815260200190815260200160002060008201518160000155602082015181600101556040820151816002015560608201518160030160006101000a81548160ff02191690831515021790555060808201518160030160016101000a81548160ff021916908315150217905550905050836001819055507fc3fc16f50dd1a58a6c57cd28f19e3b0d11ff10d2774198049c483a457b6b9156828285604051610fab93929190611de4565b60405180910390a150505050565b806000600354111561101a576003548147610fd49190611e1b565b1015611015576040517f08c379a000000000000000000000000000000000000000000000000000000000815260040161100c90611ec1565b60405180910390fd5b61105e565b8047101561105d576040517f08c379a000000000000000000000000000000000000000000000000000000000815260040161105490611f53565b60405180910390fd5b5b60008054906101000a900473ffffffffffffffffffffffffffffffffffffffff1673ffffffffffffffffffffffffffffffffffffffff163373ffffffffffffffffffffffffffffffffffffffff16146110b657600080fd5b60008373ffffffffffffffffffffffffffffffffffffffff16836040516110dc90611af0565b60006040518083038185875af1925050503d8060008114611119576040519150601f19603f3d011682016040523d82523d6000602084013e61111e565b606091505b5050905080611162576040517f08c379a000000000000000000000000000000000000000000000000000000000815260040161115990611fbf565b60405180910390fd5b50505050565b600060028054905042443360405160200161118593929190612048565b6040516020818303038152906040528051906020012060001c6111a89190612085565b905090565b6040518060a001604052806000815260200160008152602001600081526020016000151581526020016000151581525090565b6040518060400160405280600290602082028036833780820191505090505090565b82805482825590600052602060002090810192821561127b579160200282015b8281111561127a5782518260006101000a81548173ffffffffffffffffffffffffffffffffffffffff021916908373ffffffffffffffffffffffffffffffffffffffff16021790555091602001919060010190611222565b5b509050611288919061128c565b5090565b5b808211156112a557600081600090555060010161128d565b5090565b6000819050919050565b6112bc816112a9565b82525050565b60006020820190506112d760008301846112b3565b92915050565b600081519050919050565b600082825260208201905092915050565b6000819050602082019050919050565b600073ffffffffffffffffffffffffffffffffffffffff82169050919050565b600061133482611309565b9050919050565b61134481611329565b82525050565b6000611356838361133b565b60208301905092915050565b6000602082019050919050565b600061137a826112dd565b61138481856112e8565b935061138f836112f9565b8060005b838110156113c05781516113a7888261134a565b97506113b283611362565b925050600181019050611393565b5085935050505092915050565b600060208201905081810360008301526113e7818461136f565b905092915050565b600080fd5b6113fd816112a9565b811461140857600080fd5b50565b60008135905061141a816113f4565b92915050565b600060208284031215611436576114356113ef565b5b60006114448482850161140b565b91505092915050565b611456816112a9565b82525050565b60008115159050919050565b6114718161145c565b82525050565b60a08201600082015161148d600085018261144d565b5060208201516114a0602085018261144d565b5060408201516114b3604085018261144d565b5060608201516114c66060850182611468565b5060808201516114d96080850182611468565b50505050565b600060a0820190506114f46000830184611477565b92915050565b61150381611329565b82525050565b600060208201905061151e60008301846114fa565b92915050565b600060029050919050565b600081905092915050565b6000819050919050565b6000611550838361144d565b60208301905092915050565b6000602082019050919050565b61157281611524565b61157c818461152f565b92506115878261153a565b8060005b838110156115b857815161159f8782611544565b96506115aa8361155c565b92505060018101905061158b565b505050505050565b60006040820190506115d56000830184611569565b92915050565b600080600080608085870312156115f5576115f46113ef565b5b60006116038782880161140b565b94505060206116148782880161140b565b93505060406116258782880161140b565b92505060606116368782880161140b565b91505092959194509250565b61164b81611329565b811461165657600080fd5b50565b60008135905061166881611642565b92915050565b60008060408385031215611685576116846113ef565b5b600061169385828601611659565b92505060206116a48582860161140b565b9150509250929050565b7f4e487b7100000000000000000000000000000000000000000000000000000000600052604160045260246000fd5b7f4e487b7100000000000000000000000000000000000000000000000000000000600052603260045260246000fd5b7f4e487b7100000000000000000000000000000000000000000000000000000000600052601160045260246000fd5b6000611746826112a9565b91507fffffffffffffffffffffffffffffffffffffffffffffffffffffffffffffffff8214156117795761177861170c565b5b600182019050919050565b600082825260208201905092915050565b7f6c6f7474657279206170706c79696e672074696d65206973206f766572000000600082015250565b60006117cb601d83611784565b91506117d682611795565b602082019050919050565b600060208201905081810360008301526117fa816117be565b9050919050565b7f596f75206861766520616c7265616479206170706c7920666f72204c6f74746560008201527f7279000000000000000000000000000000000000000000000000000000000000602082015250565b600061185d602283611784565b915061186882611801565b604082019050919050565b6000602082019050818103600083015261188c81611850565b9050919050565b7f4f776e65722063616e2774207061727469636970617465000000000000000000600082015250565b60006118c9601783611784565b91506118d482611893565b602082019050919050565b600060208201905081810360008301526118f8816118bc565b9050919050565b7f706169642062616c616e63652069732067726561746572206f72206c6573732060008201527f7468616e206c6f74746572792070726963650000000000000000000000000000602082015250565b600061195b603283611784565b9150611966826118ff565b604082019050919050565b6000602082019050818103600083015261198a8161194e565b9050919050565b600061199c826112a9565b91506119a7836112a9565b9250827fffffffffffffffffffffffffffffffffffffffffffffffffffffffffffffffff038211156119dc576119db61170c565b5b828201905092915050565b7f496e6176616c69642054696d6520416363657373000000000000000000000000600082015250565b6000611a1d601483611784565b9150611a28826119e7565b602082019050919050565b60006020820190508181036000830152611a4c81611a10565b9050919050565b7f556e617574686f72697a65642041636365737300000000000000000000000000600082015250565b6000611a89601383611784565b9150611a9482611a53565b602082019050919050565b60006020820190508181036000830152611ab881611a7c565b9050919050565b600081905092915050565b50565b6000611ada600083611abf565b9150611ae582611aca565b600082019050919050565b6000611afb82611acd565b9150819050919050565b7f636f756c646e6f74207472616e7366657220616d6f756e7420746f2077696e6e60008201527f6572000000000000000000000000000000000000000000000000000000000000602082015250565b6000611b61602283611784565b9150611b6c82611b05565b604082019050919050565b60006020820190508181036000830152611b9081611b54565b9050919050565b7f636f756c646e6f74207472616e7366657220616d6f756e7420746f206d616e6160008201527f6765720000000000000000000000000000000000000000000000000000000000602082015250565b6000611bf3602383611784565b9150611bfe82611b97565b604082019050919050565b60006020820190508181036000830152611c2281611be6565b9050919050565b6000604082019050611c3e60008301856114fa565b611c4b60208301846112b3565b9392505050565b6000611c5d826112a9565b9150611c68836112a9565b9250817fffffffffffffffffffffffffffffffffffffffffffffffffffffffffffffffff0483118215151615611ca157611ca061170c565b5b828202905092915050565b7f4e487b7100000000000000000000000000000000000000000000000000000000600052601260045260246000fd5b6000611ce6826112a9565b9150611cf1836112a9565b925082611d0157611d00611cac565b5b828204905092915050565b7f57696e6e657220686173206e6f74206265656e2073656c656374656400000000600082015250565b6000611d42601c83611784565b9150611d4d82611d0c565b602082019050919050565b60006020820190508181036000830152611d7181611d35565b9050919050565b7f506c65617365202120436c6f73652050726576696f7573204c6f747465727900600082015250565b6000611dae601f83611784565b9150611db982611d78565b602082019050919050565b60006020820190508181036000830152611ddd81611da1565b9050919050565b6000606082019050611df960008301866112b3565b611e0660208301856112b3565b611e1360408301846112b3565b949350505050565b6000611e26826112a9565b9150611e31836112a9565b925082821015611e4457611e4361170c565b5b828203905092915050565b7f496e76616c696420416d6f756e743a204166666563747320746865206c6f747460008201527f65727920706f6f6c20616d6f756e740000000000000000000000000000000000602082015250565b6000611eab602f83611784565b9150611eb682611e4f565b604082019050919050565b60006020820190508181036000830152611eda81611e9e565b9050919050565b7f496e76616c696420416d6f756e743a2067726561746572207468616e2061766160008201527f696c61626c6520696e20636f6e74726163740000000000000000000000000000602082015250565b6000611f3d603283611784565b9150611f4882611ee1565b604082019050919050565b60006020820190508181036000830152611f6c81611f30565b9050919050565b7f5472616e73666572696e6720416d6f756e74204661696c730000000000000000600082015250565b6000611fa9601883611784565b9150611fb482611f73565b602082019050919050565b60006020820190508181036000830152611fd881611f9c565b9050919050565b6000819050919050565b611ffa611ff5826112a9565b611fdf565b82525050565b60008160601b9050919050565b600061201882612000565b9050919050565b600061202a8261200d565b9050919050565b61204261203d82611329565b61201f565b82525050565b60006120548286611fe9565b6020820191506120648285611fe9565b6020820191506120748284612031565b601482019150819050949350505050565b6000612090826112a9565b915061209b836112a9565b9250826120ab576120aa611cac565b5b82820690509291505056fea2646970667358221220a222997c8e447d1afbddf01225388a173e80811d53e1b2deb6cab4eda53db8f964736f6c63430008090033",
  "linkReferences": {},
  "deployedLinkReferences": {}
}