{
  "_format": "hh-sol-artifact-1",
  "contractName": "lotteryContract",
  "sourceName": "contracts/lotteryContract.sol",
  "abi": [
    {
      "inputs": [],
      "stateMutability": "nonpayable",
      "type": "constructor"
    },
    {
      "inputs": [],
      "name": "applyLottery",
      "outputs": [],
      "stateMutability": "payable",
      "type": "function"
    },
    {
      "inputs": [],
      "name": "getContractBalance",
      "outputs": [
        {
          "internalType": "uint256",
          "name": "",
          "type": "uint256"
        }
      ],
      "stateMutability": "view",
      "type": "function"
    },
    {
      "inputs": [
        {
          "internalType": "uint256",
          "name": "_lotteryNumber",
          "type": "uint256"
        }
      ],
      "name": "getLotteryInfo",
      "outputs": [
        {
          "components": [
            {
              "internalType": "uint256",
              "name": "lotteryPrice",
              "type": "uint256"
            },
            {
              "internalType": "uint256",
              "name": "openTime",
              "type": "uint256"
            },
            {
              "internalType": "uint256",
              "name": "closeTime",
              "type": "uint256"
            },
            {
              "internalType": "bool",
              "name": "isOpen",
              "type": "bool"
            }
          ],
          "internalType": "struct contractData.lotteryInfo",
          "name": "",
          "type": "tuple"
        }
      ],
      "stateMutability": "view",
      "type": "function"
    },
    {
      "inputs": [
        {
          "internalType": "uint256",
          "name": "_lotteryNumber",
          "type": "uint256"
        },
        {
          "internalType": "uint256",
          "name": "_lotteryPrice",
          "type": "uint256"
        },
        {
          "internalType": "uint256",
          "name": "_openTime",
          "type": "uint256"
        },
        {
          "internalType": "uint256",
          "name": "_closeTime",
          "type": "uint256"
        }
      ],
      "name": "openLottery",
      "outputs": [],
      "stateMutability": "nonpayable",
      "type": "function"
    },
    {
      "inputs": [],
      "name": "owner",
      "outputs": [
        {
          "internalType": "address",
          "name": "",
          "type": "address"
        }
      ],
      "stateMutability": "view",
      "type": "function"
    }
  ],
  "bytecode": "0x608060405234801561001057600080fd5b50336000806101000a81548173ffffffffffffffffffffffffffffffffffffffff021916908373ffffffffffffffffffffffffffffffffffffffff1602179055506106ac806100606000396000f3fe60806040526004361061004a5760003560e01c80636f9fb98a1461004f57806376b3c8a81461007a57806385559961146100b75780638da5cb5b146100c1578063ae5c5158146100ec575b600080fd5b34801561005b57600080fd5b50610064610115565b6040516100719190610391565b60405180910390f35b34801561008657600080fd5b506100a1600480360381019061009c91906103dd565b61011d565b6040516100ae9190610489565b60405180910390f35b6100bf6101ba565b005b3480156100cd57600080fd5b506100d66102a5565b6040516100e391906104e5565b60405180910390f35b3480156100f857600080fd5b50610113600480360381019061010e9190610500565b6102c9565b005b600047905090565b61012561034e565b600060405180608001604052806002600086815260200190815260200160002060000154815260200160026000868152602001908152602001600020600101548152602001600260008681526020019081526020016000206002015481526020016002600086815260200190815260200160002060030160009054906101000a900460ff161515815250905080915050919050565b60008054906101000a900473ffffffffffffffffffffffffffffffffffffffff1673ffffffffffffffffffffffffffffffffffffffff163373ffffffffffffffffffffffffffffffffffffffff161415610249576040517f08c379a0000000000000000000000000000000000000000000000000000000008152600401610240906105c4565b60405180910390fd5b6002600060015481526020019081526020016000206000015434146102a3576040517f08c379a000000000000000000000000000000000000000000000000000000000815260040161029a90610656565b60405180910390fd5b565b60008054906101000a900473ffffffffffffffffffffffffffffffffffffffff1681565b6040518060800160405280848152602001838152602001828152602001600115158152506002600086815260200190815260200160002060008201518160000155602082015181600101556040820151816002015560608201518160030160006101000a81548160ff0219169083151502179055509050508360018190555050505050565b60405180608001604052806000815260200160008152602001600081526020016000151581525090565b6000819050919050565b61038b81610378565b82525050565b60006020820190506103a66000830184610382565b92915050565b600080fd5b6103ba81610378565b81146103c557600080fd5b50565b6000813590506103d7816103b1565b92915050565b6000602082840312156103f3576103f26103ac565b5b6000610401848285016103c8565b91505092915050565b61041381610378565b82525050565b60008115159050919050565b61042e81610419565b82525050565b60808201600082015161044a600085018261040a565b50602082015161045d602085018261040a565b506040820151610470604085018261040a565b5060608201516104836060850182610425565b50505050565b600060808201905061049e6000830184610434565b92915050565b600073ffffffffffffffffffffffffffffffffffffffff82169050919050565b60006104cf826104a4565b9050919050565b6104df816104c4565b82525050565b60006020820190506104fa60008301846104d6565b92915050565b6000806000806080858703121561051a576105196103ac565b5b6000610528878288016103c8565b9450506020610539878288016103c8565b935050604061054a878288016103c8565b925050606061055b878288016103c8565b91505092959194509250565b600082825260208201905092915050565b7f4f776e65722063616e2774207061727469636970617465000000000000000000600082015250565b60006105ae601783610567565b91506105b982610578565b602082019050919050565b600060208201905081810360008301526105dd816105a1565b9050919050565b7f706169642062616c616e63652069732067726561746572206f72206c6573732060008201527f7468616e206c6f74746572792070726963650000000000000000000000000000602082015250565b6000610640603283610567565b915061064b826105e4565b604082019050919050565b6000602082019050818103600083015261066f81610633565b905091905056fea26469706673582212201c98043d51f6006a82cdd0659ee8c59e12e5eeb077c67258a17e4a734ec8de2464736f6c63430008090033",
  "linkReferences": {},
  "deployedLinkReferences": {}
}