{
  "_format": "hh-sol-artifact-1",
  "contractName": "lotteryContract",
  "sourceName": "contracts/lotteryContract.sol",
  "abi": [
    {
      "inputs": [],
      "stateMutability": "nonpayable",
      "type": "constructor"
    },
    {
      "inputs": [
        {
          "internalType": "uint256",
          "name": "_lotteryNumber",
          "type": "uint256"
        }
      ],
      "name": "getLotteryInfo",
      "outputs": [
        {
          "components": [
            {
              "internalType": "uint256",
              "name": "lotteryPrice",
              "type": "uint256"
            },
            {
              "internalType": "uint256",
              "name": "openTime",
              "type": "uint256"
            },
            {
              "internalType": "uint256",
              "name": "closeTime",
              "type": "uint256"
            },
            {
              "internalType": "bool",
              "name": "isOpen",
              "type": "bool"
            }
          ],
          "internalType": "struct contractData.lotteryInfo",
          "name": "",
          "type": "tuple"
        }
      ],
      "stateMutability": "view",
      "type": "function"
    },
    {
      "inputs": [
        {
          "internalType": "uint256",
          "name": "",
          "type": "uint256"
        }
      ],
      "name": "lotteryNumber",
      "outputs": [
        {
          "internalType": "uint256",
          "name": "",
          "type": "uint256"
        }
      ],
      "stateMutability": "view",
      "type": "function"
    },
    {
      "inputs": [
        {
          "internalType": "uint256",
          "name": "_lotteryNumber",
          "type": "uint256"
        },
        {
          "internalType": "uint256",
          "name": "_lotteryPrice",
          "type": "uint256"
        },
        {
          "internalType": "uint256",
          "name": "_openTime",
          "type": "uint256"
        },
        {
          "internalType": "uint256",
          "name": "_closeTime",
          "type": "uint256"
        }
      ],
      "name": "openLottery",
      "outputs": [],
      "stateMutability": "nonpayable",
      "type": "function"
    },
    {
      "inputs": [],
      "name": "owner",
      "outputs": [
        {
          "internalType": "address",
          "name": "",
          "type": "address"
        }
      ],
      "stateMutability": "view",
      "type": "function"
    }
  ],
  "bytecode": "0x608060405234801561001057600080fd5b50336000806101000a81548173ffffffffffffffffffffffffffffffffffffffff021916908373ffffffffffffffffffffffffffffffffffffffff16021790555061049d806100606000396000f3fe608060405234801561001057600080fd5b506004361061004c5760003560e01c80633cd93ec21461005157806376b3c8a8146100815780638da5cb5b146100b1578063ae5c5158146100cf575b600080fd5b61006b600480360381019061006691906102b3565b6100eb565b60405161007891906102ef565b60405180910390f35b61009b600480360381019061009691906102b3565b61010f565b6040516100a89190610389565b60405180910390f35b6100b96101ac565b6040516100c691906103e5565b60405180910390f35b6100e960048036038101906100e49190610400565b6101d0565b005b600181815481106100fb57600080fd5b906000526020600020016000915090505481565b61011761024e565b600060405180608001604052806002600086815260200190815260200160002060000154815260200160026000868152602001908152602001600020600101548152602001600260008681526020019081526020016000206002015481526020016002600086815260200190815260200160002060030160009054906101000a900460ff161515815250905080915050919050565b60008054906101000a900473ffffffffffffffffffffffffffffffffffffffff1681565b6040518060800160405280848152602001838152602001828152602001600115158152506002600086815260200190815260200160002060008201518160000155602082015181600101556040820151816002015560608201518160030160006101000a81548160ff02191690831515021790555090505050505050565b60405180608001604052806000815260200160008152602001600081526020016000151581525090565b600080fd5b6000819050919050565b6102908161027d565b811461029b57600080fd5b50565b6000813590506102ad81610287565b92915050565b6000602082840312156102c9576102c8610278565b5b60006102d78482850161029e565b91505092915050565b6102e98161027d565b82525050565b600060208201905061030460008301846102e0565b92915050565b6103138161027d565b82525050565b60008115159050919050565b61032e81610319565b82525050565b60808201600082015161034a600085018261030a565b50602082015161035d602085018261030a565b506040820151610370604085018261030a565b5060608201516103836060850182610325565b50505050565b600060808201905061039e6000830184610334565b92915050565b600073ffffffffffffffffffffffffffffffffffffffff82169050919050565b60006103cf826103a4565b9050919050565b6103df816103c4565b82525050565b60006020820190506103fa60008301846103d6565b92915050565b6000806000806080858703121561041a57610419610278565b5b60006104288782880161029e565b94505060206104398782880161029e565b935050604061044a8782880161029e565b925050606061045b8782880161029e565b9150509295919450925056fea2646970667358221220e300db04871eb079618f183297c1421302b513a62c0100ab796a7a45d421f9c664736f6c63430008090033",
  "linkReferences": {},
  "deployedLinkReferences": {}
}