{
  "_format": "hh-sol-artifact-1",
  "contractName": "lotteryContract",
  "sourceName": "contracts/lotteryContract.sol",
  "abi": [
    {
      "inputs": [],
      "stateMutability": "nonpayable",
      "type": "constructor"
    },
    {
      "anonymous": false,
      "inputs": [
        {
          "indexed": false,
          "internalType": "uint256",
          "name": "_appliedTime",
          "type": "uint256"
        }
      ],
      "name": "lotteryApplyEvent",
      "type": "event"
    },
    {
      "anonymous": false,
      "inputs": [
        {
          "indexed": false,
          "internalType": "uint256",
          "name": "_openTime",
          "type": "uint256"
        },
        {
          "indexed": false,
          "internalType": "uint256",
          "name": "_closeTime",
          "type": "uint256"
        },
        {
          "indexed": false,
          "internalType": "uint256",
          "name": "_price",
          "type": "uint256"
        }
      ],
      "name": "lotteryOpenEvent",
      "type": "event"
    },
    {
      "anonymous": false,
      "inputs": [
        {
          "indexed": false,
          "internalType": "address",
          "name": "_managerAddress",
          "type": "address"
        },
        {
          "indexed": false,
          "internalType": "uint256",
          "name": "_commissionAmount",
          "type": "uint256"
        }
      ],
      "name": "transferredToManager",
      "type": "event"
    },
    {
      "anonymous": false,
      "inputs": [
        {
          "indexed": false,
          "internalType": "address",
          "name": "_winnerAddress",
          "type": "address"
        },
        {
          "indexed": false,
          "internalType": "uint256",
          "name": "_winningAmount",
          "type": "uint256"
        }
      ],
      "name": "transferredToWinner",
      "type": "event"
    },
    {
      "inputs": [
        {
          "internalType": "uint256",
          "name": "_appliedTime",
          "type": "uint256"
        }
      ],
      "name": "applyLottery",
      "outputs": [],
      "stateMutability": "payable",
      "type": "function"
    },
    {
      "inputs": [
        {
          "internalType": "uint256",
          "name": "_closingCallTime",
          "type": "uint256"
        }
      ],
      "name": "closeLottery",
      "outputs": [],
      "stateMutability": "nonpayable",
      "type": "function"
    },
    {
      "inputs": [],
      "name": "getContractBalance",
      "outputs": [
        {
          "internalType": "uint256",
          "name": "",
          "type": "uint256"
        }
      ],
      "stateMutability": "view",
      "type": "function"
    },
    {
      "inputs": [
        {
          "internalType": "uint256",
          "name": "_lotteryNumber",
          "type": "uint256"
        }
      ],
      "name": "getLotteryInfo",
      "outputs": [
        {
          "components": [
            {
              "internalType": "uint256",
              "name": "lotteryPrice",
              "type": "uint256"
            },
            {
              "internalType": "uint256",
              "name": "openTime",
              "type": "uint256"
            },
            {
              "internalType": "uint256",
              "name": "closeTime",
              "type": "uint256"
            },
            {
              "internalType": "bool",
              "name": "isOpen",
              "type": "bool"
            },
            {
              "internalType": "bool",
              "name": "isWinnerSelected",
              "type": "bool"
            }
          ],
          "internalType": "struct contractData.lotteryInfo",
          "name": "",
          "type": "tuple"
        }
      ],
      "stateMutability": "view",
      "type": "function"
    },
    {
      "inputs": [],
      "name": "getLotteryParticipants",
      "outputs": [
        {
          "internalType": "address[]",
          "name": "",
          "type": "address[]"
        }
      ],
      "stateMutability": "view",
      "type": "function"
    },
    {
      "inputs": [],
      "name": "lotteryPool",
      "outputs": [
        {
          "internalType": "uint256",
          "name": "",
          "type": "uint256"
        }
      ],
      "stateMutability": "view",
      "type": "function"
    },
    {
      "inputs": [
        {
          "internalType": "uint256",
          "name": "_lotteryNumber",
          "type": "uint256"
        },
        {
          "internalType": "uint256",
          "name": "_lotteryPrice",
          "type": "uint256"
        },
        {
          "internalType": "uint256",
          "name": "_openTime",
          "type": "uint256"
        },
        {
          "internalType": "uint256",
          "name": "_closeTime",
          "type": "uint256"
        }
      ],
      "name": "openLottery",
      "outputs": [],
      "stateMutability": "nonpayable",
      "type": "function"
    },
    {
      "inputs": [],
      "name": "owner",
      "outputs": [
        {
          "internalType": "address",
          "name": "",
          "type": "address"
        }
      ],
      "stateMutability": "view",
      "type": "function"
    },
    {
      "inputs": [
        {
          "internalType": "uint256",
          "name": "_invokedTime",
          "type": "uint256"
        }
      ],
      "name": "selectWinner",
      "outputs": [],
      "stateMutability": "nonpayable",
      "type": "function"
    },
    {
      "inputs": [
        {
          "internalType": "address",
          "name": "_toAddress",
          "type": "address"
        },
        {
          "internalType": "uint256",
          "name": "_amount",
          "type": "uint256"
        }
      ],
      "name": "transferAmount",
      "outputs": [],
      "stateMutability": "nonpayable",
      "type": "function"
    },
    {
      "inputs": [],
      "name": "winningAmount",
      "outputs": [
        {
          "internalType": "uint256[2]",
          "name": "",
          "type": "uint256[2]"
        }
      ],
      "stateMutability": "view",
      "type": "function"
    }
  ],
  "bytecode": "0x608060405234801561001057600080fd5b50336000806101000a81548173ffffffffffffffffffffffffffffffffffffffff021916908373ffffffffffffffffffffffffffffffffffffffff1602179055506120fc806100606000396000f3fe60806040526004361061009c5760003560e01c806376b3c8a81161006457806376b3c8a8146101675780638da5cb5b146101a457806398f22c12146101cf5780639d8ca531146101fa578063ae5c515814610223578063d7081e031461024c5761009c565b80632c831633146100a15780633e4ed9c4146100cc578063469b128b146100f75780634c524be4146101135780636f9fb98a1461013c575b600080fd5b3480156100ad57600080fd5b506100b6610275565b6040516100c391906112d2565b60405180910390f35b3480156100d857600080fd5b506100e161027b565b6040516100ee91906113dd565b60405180910390f35b610111600480360381019061010c9190611430565b610386565b005b34801561011f57600080fd5b5061013a60048036038101906101359190611430565b610668565b005b34801561014857600080fd5b50610151610a88565b60405161015e91906112d2565b60405180910390f35b34801561017357600080fd5b5061018e60048036038101906101899190611430565b610a90565b60405161019b91906114ef565b60405180910390f35b3480156101b057600080fd5b506101b9610b58565b6040516101c69190611519565b60405180910390f35b3480156101db57600080fd5b506101e4610b7c565b6040516101f191906115d0565b60405180910390f35b34801561020657600080fd5b50610221600480360381019061021c9190611430565b610c0f565b005b34801561022f57600080fd5b5061024a600480360381019061024591906115eb565b610e74565b005b34801561025857600080fd5b50610273600480360381019061026e919061167e565b610fc9565b005b60035481565b6060600060028054905067ffffffffffffffff81111561029e5761029d6116be565b5b6040519080825280602002602001820160405280156102cc5781602001602082028036833780820191505090505b50905060005b60028054905081101561037e57600281815481106102f3576102f26116ed565b5b9060005260206000200160009054906101000a900473ffffffffffffffffffffffffffffffffffffffff16828281518110610331576103306116ed565b5b602002602001019073ffffffffffffffffffffffffffffffffffffffff16908173ffffffffffffffffffffffffffffffffffffffff168152505080806103769061174b565b9150506102d2565b508091505090565b80806004600060015481526020019081526020016000206002015410156103e2576040517f08c379a00000000000000000000000000000000000000000000000000000000081526004016103d9906117f1565b60405180910390fd5b60001515600560003373ffffffffffffffffffffffffffffffffffffffff1673ffffffffffffffffffffffffffffffffffffffff16815260200190815260200160002060009054906101000a900460ff16151514610475576040517f08c379a000000000000000000000000000000000000000000000000000000000815260040161046c90611883565b60405180910390fd5b60008054906101000a900473ffffffffffffffffffffffffffffffffffffffff1673ffffffffffffffffffffffffffffffffffffffff163373ffffffffffffffffffffffffffffffffffffffff161415610504576040517f08c379a00000000000000000000000000000000000000000000000000000000081526004016104fb906118ef565b60405180910390fd5b60046000600154815260200190815260200160002060000154341461055e576040517f08c379a000000000000000000000000000000000000000000000000000000000815260040161055590611981565b60405180910390fd5b6002339080600181540180825580915050600190039060005260206000200160009091909190916101000a81548173ffffffffffffffffffffffffffffffffffffffff021916908373ffffffffffffffffffffffffffffffffffffffff1602179055506001600560003373ffffffffffffffffffffffffffffffffffffffff1673ffffffffffffffffffffffffffffffffffffffff16815260200190815260200160002060006101000a81548160ff0219169083151502179055503460035461062791906119a1565b6003819055507f59d56850d25f2f99b43c18e1576f49db450be650d3a497a8c3d67a70fd595d248260405161065c91906112d2565b60405180910390a15050565b808060046000600154815260200190815260200160002060020154106106c3576040517f08c379a00000000000000000000000000000000000000000000000000000000081526004016106ba90611a43565b60405180910390fd5b60008054906101000a900473ffffffffffffffffffffffffffffffffffffffff1673ffffffffffffffffffffffffffffffffffffffff163373ffffffffffffffffffffffffffffffffffffffff1614610751576040517f08c379a000000000000000000000000000000000000000000000000000000000815260040161074890611aaf565b60405180910390fd5b600061075b611178565b9050600060028281548110610773576107726116ed565b5b9060005260206000200160009054906101000a900473ffffffffffffffffffffffffffffffffffffffff16905060006107aa610b7c565b905060008273ffffffffffffffffffffffffffffffffffffffff16826001600281106107d9576107d86116ed565b5b60200201516040516107ea90611b00565b60006040518083038185875af1925050503d8060008114610827576040519150601f19603f3d011682016040523d82523d6000602084013e61082c565b606091505b5050905080610870576040517f08c379a000000000000000000000000000000000000000000000000000000000815260040161086790611b87565b60405180910390fd5b60008060009054906101000a900473ffffffffffffffffffffffffffffffffffffffff1673ffffffffffffffffffffffffffffffffffffffff16836000600281106108be576108bd6116ed565b5b60200201516040516108cf90611b00565b60006040518083038185875af1925050503d806000811461090c576040519150601f19603f3d011682016040523d82523d6000602084013e610911565b606091505b5050905080610955576040517f08c379a000000000000000000000000000000000000000000000000000000000815260040161094c90611c19565b60405180910390fd5b600160046000600154815260200190815260200160002060030160016101000a81548160ff021916908315150217905550600060046000600154815260200190815260200160002060030160006101000a81548160ff0219169083151502179055507f0b90afeab6d64e573c1dcad739c379d038126f49a499b2f70896c26f2926df9284846001600281106109ed576109ec6116ed565b5b6020020151604051610a00929190611c39565b60405180910390a17fb2b73e9692534825483decce8773f0c3c890f0b4ac6cbeb1a77af0946b0b797160008054906101000a900473ffffffffffffffffffffffffffffffffffffffff1684600060028110610a5e57610a5d6116ed565b5b6020020151604051610a71929190611c39565b60405180910390a160036000905550505050505050565b600047905090565b610a986111bd565b60006040518060a001604052806004600086815260200190815260200160002060000154815260200160046000868152602001908152602001600020600101548152602001600460008681526020019081526020016000206002015481526020016004600086815260200190815260200160002060030160009054906101000a900460ff16151581526020016004600086815260200190815260200160002060030160019054906101000a900460ff161515815250905080915050919050565b60008054906101000a900473ffffffffffffffffffffffffffffffffffffffff1681565b610b846111f0565b610b8c6111f0565b600060646003546043610b9f9190611c62565b610ba99190611ceb565b905060006064600354600d610bbe9190611c62565b610bc89190611ceb565b90508183600060028110610bdf57610bde6116ed565b5b6020020181815250508083600160028110610bfd57610bfc6116ed565b5b60200201818152505082935050505090565b80806004600060015481526020019081526020016000206002015410610c6a576040517f08c379a0000000000000000000000000000000000000000000000000000000008152600401610c6190611a43565b60405180910390fd5b6001151560046000600154815260200190815260200160002060030160019054906101000a900460ff16151514610cd6576040517f08c379a0000000000000000000000000000000000000000000000000000000008152600401610ccd90611d68565b60405180910390fd5b60008054906101000a900473ffffffffffffffffffffffffffffffffffffffff1673ffffffffffffffffffffffffffffffffffffffff163373ffffffffffffffffffffffffffffffffffffffff1614610d2e57600080fd5b600060046000600154815260200190815260200160002060030160006101000a81548160ff02191690831515021790555060005b600280549050811015610e0f576005600060028381548110610d8757610d866116ed565b5b9060005260206000200160009054906101000a900473ffffffffffffffffffffffffffffffffffffffff1673ffffffffffffffffffffffffffffffffffffffff1673ffffffffffffffffffffffffffffffffffffffff16815260200190815260200160002060006101000a81549060ff02191690558080610e079061174b565b915050610d62565b50600067ffffffffffffffff811115610e2b57610e2a6116be565b5b604051908082528060200260200182016040528015610e595781602001602082028036833780820191505090505b5060029080519060200190610e6f929190611212565b505050565b6000151560046000600154815260200190815260200160002060030160009054906101000a900460ff16151514610ee0576040517f08c379a0000000000000000000000000000000000000000000000000000000008152600401610ed790611dd4565b60405180910390fd5b6040518060a00160405280848152602001838152602001828152602001600115158152602001600015158152506004600086815260200190815260200160002060008201518160000155602082015181600101556040820151816002015560608201518160030160006101000a81548160ff02191690831515021790555060808201518160030160016101000a81548160ff021916908315150217905550905050836001819055507fc3fc16f50dd1a58a6c57cd28f19e3b0d11ff10d2774198049c483a457b6b9156828285604051610fbb93929190611df4565b60405180910390a150505050565b806000600354111561102a576003548147610fe49190611e2b565b1015611025576040517f08c379a000000000000000000000000000000000000000000000000000000000815260040161101c90611ed1565b60405180910390fd5b61106e565b8047101561106d576040517f08c379a000000000000000000000000000000000000000000000000000000000815260040161106490611f63565b60405180910390fd5b5b60008054906101000a900473ffffffffffffffffffffffffffffffffffffffff1673ffffffffffffffffffffffffffffffffffffffff163373ffffffffffffffffffffffffffffffffffffffff16146110c657600080fd5b60008373ffffffffffffffffffffffffffffffffffffffff16836040516110ec90611b00565b60006040518083038185875af1925050503d8060008114611129576040519150601f19603f3d011682016040523d82523d6000602084013e61112e565b606091505b5050905080611172576040517f08c379a000000000000000000000000000000000000000000000000000000000815260040161116990611fcf565b60405180910390fd5b50505050565b600060028054905042443360405160200161119593929190612058565b6040516020818303038152906040528051906020012060001c6111b89190612095565b905090565b6040518060a001604052806000815260200160008152602001600081526020016000151581526020016000151581525090565b6040518060400160405280600290602082028036833780820191505090505090565b82805482825590600052602060002090810192821561128b579160200282015b8281111561128a5782518260006101000a81548173ffffffffffffffffffffffffffffffffffffffff021916908373ffffffffffffffffffffffffffffffffffffffff16021790555091602001919060010190611232565b5b509050611298919061129c565b5090565b5b808211156112b557600081600090555060010161129d565b5090565b6000819050919050565b6112cc816112b9565b82525050565b60006020820190506112e760008301846112c3565b92915050565b600081519050919050565b600082825260208201905092915050565b6000819050602082019050919050565b600073ffffffffffffffffffffffffffffffffffffffff82169050919050565b600061134482611319565b9050919050565b61135481611339565b82525050565b6000611366838361134b565b60208301905092915050565b6000602082019050919050565b600061138a826112ed565b61139481856112f8565b935061139f83611309565b8060005b838110156113d05781516113b7888261135a565b97506113c283611372565b9250506001810190506113a3565b5085935050505092915050565b600060208201905081810360008301526113f7818461137f565b905092915050565b600080fd5b61140d816112b9565b811461141857600080fd5b50565b60008135905061142a81611404565b92915050565b600060208284031215611446576114456113ff565b5b60006114548482850161141b565b91505092915050565b611466816112b9565b82525050565b60008115159050919050565b6114818161146c565b82525050565b60a08201600082015161149d600085018261145d565b5060208201516114b0602085018261145d565b5060408201516114c3604085018261145d565b5060608201516114d66060850182611478565b5060808201516114e96080850182611478565b50505050565b600060a0820190506115046000830184611487565b92915050565b61151381611339565b82525050565b600060208201905061152e600083018461150a565b92915050565b600060029050919050565b600081905092915050565b6000819050919050565b6000611560838361145d565b60208301905092915050565b6000602082019050919050565b61158281611534565b61158c818461153f565b92506115978261154a565b8060005b838110156115c85781516115af8782611554565b96506115ba8361156c565b92505060018101905061159b565b505050505050565b60006040820190506115e56000830184611579565b92915050565b60008060008060808587031215611605576116046113ff565b5b60006116138782880161141b565b94505060206116248782880161141b565b93505060406116358782880161141b565b92505060606116468782880161141b565b91505092959194509250565b61165b81611339565b811461166657600080fd5b50565b60008135905061167881611652565b92915050565b60008060408385031215611695576116946113ff565b5b60006116a385828601611669565b92505060206116b48582860161141b565b9150509250929050565b7f4e487b7100000000000000000000000000000000000000000000000000000000600052604160045260246000fd5b7f4e487b7100000000000000000000000000000000000000000000000000000000600052603260045260246000fd5b7f4e487b7100000000000000000000000000000000000000000000000000000000600052601160045260246000fd5b6000611756826112b9565b91507fffffffffffffffffffffffffffffffffffffffffffffffffffffffffffffffff8214156117895761178861171c565b5b600182019050919050565b600082825260208201905092915050565b7f6c6f7474657279206170706c79696e672074696d65206973206f766572000000600082015250565b60006117db601d83611794565b91506117e6826117a5565b602082019050919050565b6000602082019050818103600083015261180a816117ce565b9050919050565b7f596f75206861766520616c7265616479206170706c7920666f72204c6f74746560008201527f7279000000000000000000000000000000000000000000000000000000000000602082015250565b600061186d602283611794565b915061187882611811565b604082019050919050565b6000602082019050818103600083015261189c81611860565b9050919050565b7f4f776e65722063616e2774207061727469636970617465000000000000000000600082015250565b60006118d9601783611794565b91506118e4826118a3565b602082019050919050565b60006020820190508181036000830152611908816118cc565b9050919050565b7f706169642062616c616e63652069732067726561746572206f72206c6573732060008201527f7468616e206c6f74746572792070726963650000000000000000000000000000602082015250565b600061196b603283611794565b91506119768261190f565b604082019050919050565b6000602082019050818103600083015261199a8161195e565b9050919050565b60006119ac826112b9565b91506119b7836112b9565b9250827fffffffffffffffffffffffffffffffffffffffffffffffffffffffffffffffff038211156119ec576119eb61171c565b5b828201905092915050565b7f496e6176616c69642054696d6520416363657373000000000000000000000000600082015250565b6000611a2d601483611794565b9150611a38826119f7565b602082019050919050565b60006020820190508181036000830152611a5c81611a20565b9050919050565b7f556e617574686f72697a65642041636365737300000000000000000000000000600082015250565b6000611a99601383611794565b9150611aa482611a63565b602082019050919050565b60006020820190508181036000830152611ac881611a8c565b9050919050565b600081905092915050565b50565b6000611aea600083611acf565b9150611af582611ada565b600082019050919050565b6000611b0b82611add565b9150819050919050565b7f636f756c646e6f74207472616e7366657220616d6f756e7420746f2077696e6e60008201527f6572000000000000000000000000000000000000000000000000000000000000602082015250565b6000611b71602283611794565b9150611b7c82611b15565b604082019050919050565b60006020820190508181036000830152611ba081611b64565b9050919050565b7f636f756c646e6f74207472616e7366657220616d6f756e7420746f206d616e6160008201527f6765720000000000000000000000000000000000000000000000000000000000602082015250565b6000611c03602383611794565b9150611c0e82611ba7565b604082019050919050565b60006020820190508181036000830152611c3281611bf6565b9050919050565b6000604082019050611c4e600083018561150a565b611c5b60208301846112c3565b9392505050565b6000611c6d826112b9565b9150611c78836112b9565b9250817fffffffffffffffffffffffffffffffffffffffffffffffffffffffffffffffff0483118215151615611cb157611cb061171c565b5b828202905092915050565b7f4e487b7100000000000000000000000000000000000000000000000000000000600052601260045260246000fd5b6000611cf6826112b9565b9150611d01836112b9565b925082611d1157611d10611cbc565b5b828204905092915050565b7f57696e6e657220686173206e6f74206265656e2073656c656374656400000000600082015250565b6000611d52601c83611794565b9150611d5d82611d1c565b602082019050919050565b60006020820190508181036000830152611d8181611d45565b9050919050565b7f506c65617365202120436c6f73652050726576696f7573204c6f747465727900600082015250565b6000611dbe601f83611794565b9150611dc982611d88565b602082019050919050565b60006020820190508181036000830152611ded81611db1565b9050919050565b6000606082019050611e0960008301866112c3565b611e1660208301856112c3565b611e2360408301846112c3565b949350505050565b6000611e36826112b9565b9150611e41836112b9565b925082821015611e5457611e5361171c565b5b828203905092915050565b7f496e76616c696420416d6f756e743a204166666563747320746865206c6f747460008201527f65727920706f6f6c20616d6f756e740000000000000000000000000000000000602082015250565b6000611ebb602f83611794565b9150611ec682611e5f565b604082019050919050565b60006020820190508181036000830152611eea81611eae565b9050919050565b7f496e76616c696420416d6f756e743a2067726561746572207468616e2061766160008201527f696c61626c6520696e20636f6e74726163740000000000000000000000000000602082015250565b6000611f4d603283611794565b9150611f5882611ef1565b604082019050919050565b60006020820190508181036000830152611f7c81611f40565b9050919050565b7f5472616e73666572696e6720416d6f756e74204661696c730000000000000000600082015250565b6000611fb9601883611794565b9150611fc482611f83565b602082019050919050565b60006020820190508181036000830152611fe881611fac565b9050919050565b6000819050919050565b61200a612005826112b9565b611fef565b82525050565b60008160601b9050919050565b600061202882612010565b9050919050565b600061203a8261201d565b9050919050565b61205261204d82611339565b61202f565b82525050565b60006120648286611ff9565b6020820191506120748285611ff9565b6020820191506120848284612041565b601482019150819050949350505050565b60006120a0826112b9565b91506120ab836112b9565b9250826120bb576120ba611cbc565b5b82820690509291505056fea26469706673582212201217819a59d3ecb60cd4c5d03f23fde4fefa9ebbbef3a193cbbfbb86b917262164736f6c63430008090033",
  "linkReferences": {},
  "deployedLinkReferences": {}
}