{
  "_format": "hh-sol-artifact-1",
  "contractName": "lotteryContract",
  "sourceName": "contracts/lotteryContract.sol",
  "abi": [
    {
      "inputs": [],
      "stateMutability": "nonpayable",
      "type": "constructor"
    },
    {
      "inputs": [
        {
          "internalType": "uint256",
          "name": "_appliedTime",
          "type": "uint256"
        }
      ],
      "name": "applyLottery",
      "outputs": [],
      "stateMutability": "payable",
      "type": "function"
    },
    {
      "inputs": [],
      "name": "getContractBalance",
      "outputs": [
        {
          "internalType": "uint256",
          "name": "",
          "type": "uint256"
        }
      ],
      "stateMutability": "view",
      "type": "function"
    },
    {
      "inputs": [
        {
          "internalType": "uint256",
          "name": "_lotteryNumber",
          "type": "uint256"
        }
      ],
      "name": "getLotteryInfo",
      "outputs": [
        {
          "components": [
            {
              "internalType": "uint256",
              "name": "lotteryPrice",
              "type": "uint256"
            },
            {
              "internalType": "uint256",
              "name": "openTime",
              "type": "uint256"
            },
            {
              "internalType": "uint256",
              "name": "closeTime",
              "type": "uint256"
            },
            {
              "internalType": "bool",
              "name": "isOpen",
              "type": "bool"
            }
          ],
          "internalType": "struct contractData.lotteryInfo",
          "name": "",
          "type": "tuple"
        }
      ],
      "stateMutability": "view",
      "type": "function"
    },
    {
      "inputs": [],
      "name": "lotteryPool",
      "outputs": [
        {
          "internalType": "uint256",
          "name": "",
          "type": "uint256"
        }
      ],
      "stateMutability": "view",
      "type": "function"
    },
    {
      "inputs": [
        {
          "internalType": "uint256",
          "name": "_lotteryNumber",
          "type": "uint256"
        },
        {
          "internalType": "uint256",
          "name": "_lotteryPrice",
          "type": "uint256"
        },
        {
          "internalType": "uint256",
          "name": "_openTime",
          "type": "uint256"
        },
        {
          "internalType": "uint256",
          "name": "_closeTime",
          "type": "uint256"
        }
      ],
      "name": "openLottery",
      "outputs": [],
      "stateMutability": "nonpayable",
      "type": "function"
    },
    {
      "inputs": [],
      "name": "owner",
      "outputs": [
        {
          "internalType": "address",
          "name": "",
          "type": "address"
        }
      ],
      "stateMutability": "view",
      "type": "function"
    }
  ],
  "bytecode": "0x608060405234801561001057600080fd5b50336000806101000a81548173ffffffffffffffffffffffffffffffffffffffff021916908373ffffffffffffffffffffffffffffffffffffffff1602179055506108c0806100606000396000f3fe6080604052600436106100555760003560e01c80632c8316331461005a578063469b128b146100855780636f9fb98a146100a157806376b3c8a8146100cc5780638da5cb5b14610109578063ae5c515814610134575b600080fd5b34801561006657600080fd5b5061006f61015d565b60405161007c91906104b4565b60405180910390f35b61009f600480360381019061009a9190610500565b610163565b005b3480156100ad57600080fd5b506100b6610323565b6040516100c391906104b4565b60405180910390f35b3480156100d857600080fd5b506100f360048036038101906100ee9190610500565b61032b565b60405161010091906105ac565b60405180910390f35b34801561011557600080fd5b5061011e6103c8565b60405161012b9190610608565b60405180910390f35b34801561014057600080fd5b5061015b60048036038101906101569190610623565b6103ec565b005b60035481565b80806004600060015481526020019081526020016000206002015410156101bf576040517f08c379a00000000000000000000000000000000000000000000000000000000081526004016101b6906106e7565b60405180910390fd5b60008054906101000a900473ffffffffffffffffffffffffffffffffffffffff1673ffffffffffffffffffffffffffffffffffffffff163373ffffffffffffffffffffffffffffffffffffffff16141561024e576040517f08c379a000000000000000000000000000000000000000000000000000000000815260040161024590610753565b60405180910390fd5b6004600060015481526020019081526020016000206000015434146102a8576040517f08c379a000000000000000000000000000000000000000000000000000000000815260040161029f906107e5565b60405180910390fd5b6002339080600181540180825580915050600190039060005260206000200160009091909190916101000a81548173ffffffffffffffffffffffffffffffffffffffff021916908373ffffffffffffffffffffffffffffffffffffffff160217905550346003546103199190610834565b6003819055505050565b600047905090565b610333610471565b600060405180608001604052806004600086815260200190815260200160002060000154815260200160046000868152602001908152602001600020600101548152602001600460008681526020019081526020016000206002015481526020016004600086815260200190815260200160002060030160009054906101000a900460ff161515815250905080915050919050565b60008054906101000a900473ffffffffffffffffffffffffffffffffffffffff1681565b6040518060800160405280848152602001838152602001828152602001600115158152506004600086815260200190815260200160002060008201518160000155602082015181600101556040820151816002015560608201518160030160006101000a81548160ff0219169083151502179055509050508360018190555050505050565b60405180608001604052806000815260200160008152602001600081526020016000151581525090565b6000819050919050565b6104ae8161049b565b82525050565b60006020820190506104c960008301846104a5565b92915050565b600080fd5b6104dd8161049b565b81146104e857600080fd5b50565b6000813590506104fa816104d4565b92915050565b600060208284031215610516576105156104cf565b5b6000610524848285016104eb565b91505092915050565b6105368161049b565b82525050565b60008115159050919050565b6105518161053c565b82525050565b60808201600082015161056d600085018261052d565b506020820151610580602085018261052d565b506040820151610593604085018261052d565b5060608201516105a66060850182610548565b50505050565b60006080820190506105c16000830184610557565b92915050565b600073ffffffffffffffffffffffffffffffffffffffff82169050919050565b60006105f2826105c7565b9050919050565b610602816105e7565b82525050565b600060208201905061061d60008301846105f9565b92915050565b6000806000806080858703121561063d5761063c6104cf565b5b600061064b878288016104eb565b945050602061065c878288016104eb565b935050604061066d878288016104eb565b925050606061067e878288016104eb565b91505092959194509250565b600082825260208201905092915050565b7f6c6f7474657279206170706c79696e672074696d65206973206f766572000000600082015250565b60006106d1601d8361068a565b91506106dc8261069b565b602082019050919050565b60006020820190508181036000830152610700816106c4565b9050919050565b7f4f776e65722063616e2774207061727469636970617465000000000000000000600082015250565b600061073d60178361068a565b915061074882610707565b602082019050919050565b6000602082019050818103600083015261076c81610730565b9050919050565b7f706169642062616c616e63652069732067726561746572206f72206c6573732060008201527f7468616e206c6f74746572792070726963650000000000000000000000000000602082015250565b60006107cf60328361068a565b91506107da82610773565b604082019050919050565b600060208201905081810360008301526107fe816107c2565b9050919050565b7f4e487b7100000000000000000000000000000000000000000000000000000000600052601160045260246000fd5b600061083f8261049b565b915061084a8361049b565b9250827fffffffffffffffffffffffffffffffffffffffffffffffffffffffffffffffff0382111561087f5761087e610805565b5b82820190509291505056fea2646970667358221220d1faa985b45132a734d65cce1cc16bfc93c9acb9b81c70ef3d1b58dfd4d6304064736f6c63430008090033",
  "linkReferences": {},
  "deployedLinkReferences": {}
}