{
  "_format": "hh-sol-artifact-1",
  "contractName": "lotteryContract",
  "sourceName": "contracts/lotteryContract.sol",
  "abi": [
    {
      "inputs": [],
      "stateMutability": "nonpayable",
      "type": "constructor"
    },
    {
      "inputs": [
        {
          "internalType": "uint256",
          "name": "_appliedTime",
          "type": "uint256"
        }
      ],
      "name": "applyLottery",
      "outputs": [],
      "stateMutability": "payable",
      "type": "function"
    },
    {
      "inputs": [],
      "name": "getContractBalance",
      "outputs": [
        {
          "internalType": "uint256",
          "name": "",
          "type": "uint256"
        }
      ],
      "stateMutability": "view",
      "type": "function"
    },
    {
      "inputs": [
        {
          "internalType": "uint256",
          "name": "_lotteryNumber",
          "type": "uint256"
        }
      ],
      "name": "getLotteryInfo",
      "outputs": [
        {
          "components": [
            {
              "internalType": "uint256",
              "name": "lotteryPrice",
              "type": "uint256"
            },
            {
              "internalType": "uint256",
              "name": "openTime",
              "type": "uint256"
            },
            {
              "internalType": "uint256",
              "name": "closeTime",
              "type": "uint256"
            },
            {
              "internalType": "bool",
              "name": "isOpen",
              "type": "bool"
            }
          ],
          "internalType": "struct contractData.lotteryInfo",
          "name": "",
          "type": "tuple"
        }
      ],
      "stateMutability": "view",
      "type": "function"
    },
    {
      "inputs": [
        {
          "internalType": "uint256",
          "name": "_lotteryNumber",
          "type": "uint256"
        },
        {
          "internalType": "uint256",
          "name": "_lotteryPrice",
          "type": "uint256"
        },
        {
          "internalType": "uint256",
          "name": "_openTime",
          "type": "uint256"
        },
        {
          "internalType": "uint256",
          "name": "_closeTime",
          "type": "uint256"
        }
      ],
      "name": "openLottery",
      "outputs": [],
      "stateMutability": "nonpayable",
      "type": "function"
    },
    {
      "inputs": [],
      "name": "owner",
      "outputs": [
        {
          "internalType": "address",
          "name": "",
          "type": "address"
        }
      ],
      "stateMutability": "view",
      "type": "function"
    }
  ],
  "bytecode": "0x608060405234801561001057600080fd5b50336000806101000a81548173ffffffffffffffffffffffffffffffffffffffff021916908373ffffffffffffffffffffffffffffffffffffffff1602179055506107eb806100606000396000f3fe60806040526004361061004a5760003560e01c8063469b128b1461004f5780636f9fb98a1461006b57806376b3c8a8146100965780638da5cb5b146100d3578063ae5c5158146100fe575b600080fd5b61006960048036038101906100649190610486565b610127565b005b34801561007757600080fd5b506100806102d3565b60405161008d91906104c2565b60405180910390f35b3480156100a257600080fd5b506100bd60048036038101906100b89190610486565b6102db565b6040516100ca919061055c565b60405180910390f35b3480156100df57600080fd5b506100e8610378565b6040516100f591906105b8565b60405180910390f35b34801561010a57600080fd5b50610125600480360381019061012091906105d3565b61039c565b005b8080600360006001548152602001908152602001600020600201541015610183576040517f08c379a000000000000000000000000000000000000000000000000000000000815260040161017a90610697565b60405180910390fd5b60008054906101000a900473ffffffffffffffffffffffffffffffffffffffff1673ffffffffffffffffffffffffffffffffffffffff163373ffffffffffffffffffffffffffffffffffffffff161415610212576040517f08c379a000000000000000000000000000000000000000000000000000000000815260040161020990610703565b60405180910390fd5b60036000600154815260200190815260200160002060000154341461026c576040517f08c379a000000000000000000000000000000000000000000000000000000000815260040161026390610795565b60405180910390fd5b6002339080600181540180825580915050600190039060005260206000200160009091909190916101000a81548173ffffffffffffffffffffffffffffffffffffffff021916908373ffffffffffffffffffffffffffffffffffffffff1602179055505050565b600047905090565b6102e3610421565b600060405180608001604052806003600086815260200190815260200160002060000154815260200160036000868152602001908152602001600020600101548152602001600360008681526020019081526020016000206002015481526020016003600086815260200190815260200160002060030160009054906101000a900460ff161515815250905080915050919050565b60008054906101000a900473ffffffffffffffffffffffffffffffffffffffff1681565b6040518060800160405280848152602001838152602001828152602001600115158152506003600086815260200190815260200160002060008201518160000155602082015181600101556040820151816002015560608201518160030160006101000a81548160ff0219169083151502179055509050508360018190555050505050565b60405180608001604052806000815260200160008152602001600081526020016000151581525090565b600080fd5b6000819050919050565b61046381610450565b811461046e57600080fd5b50565b6000813590506104808161045a565b92915050565b60006020828403121561049c5761049b61044b565b5b60006104aa84828501610471565b91505092915050565b6104bc81610450565b82525050565b60006020820190506104d760008301846104b3565b92915050565b6104e681610450565b82525050565b60008115159050919050565b610501816104ec565b82525050565b60808201600082015161051d60008501826104dd565b50602082015161053060208501826104dd565b50604082015161054360408501826104dd565b50606082015161055660608501826104f8565b50505050565b60006080820190506105716000830184610507565b92915050565b600073ffffffffffffffffffffffffffffffffffffffff82169050919050565b60006105a282610577565b9050919050565b6105b281610597565b82525050565b60006020820190506105cd60008301846105a9565b92915050565b600080600080608085870312156105ed576105ec61044b565b5b60006105fb87828801610471565b945050602061060c87828801610471565b935050604061061d87828801610471565b925050606061062e87828801610471565b91505092959194509250565b600082825260208201905092915050565b7f6c6f7474657279206170706c79696e672074696d65206973206f766572000000600082015250565b6000610681601d8361063a565b915061068c8261064b565b602082019050919050565b600060208201905081810360008301526106b081610674565b9050919050565b7f4f776e65722063616e2774207061727469636970617465000000000000000000600082015250565b60006106ed60178361063a565b91506106f8826106b7565b602082019050919050565b6000602082019050818103600083015261071c816106e0565b9050919050565b7f706169642062616c616e63652069732067726561746572206f72206c6573732060008201527f7468616e206c6f74746572792070726963650000000000000000000000000000602082015250565b600061077f60328361063a565b915061078a82610723565b604082019050919050565b600060208201905081810360008301526107ae81610772565b905091905056fea26469706673582212207fb9ab52bae480d3a060b6b6136b39b9e34e0fa2f1f67004efa759bd857435a364736f6c63430008090033",
  "linkReferences": {},
  "deployedLinkReferences": {}
}